:020000040800F2
:1000000000800120D5010008250200082502000813
:100010002502000825020008250200080000000053
:1000200000000000000000000000000025020008A1
:100030002502000800000000250200082502000833
:100040000000000025020008250200082502000823
:1000500025020008250200082502000825020008E4
:1000600025020008250200082502000825020008D4
:1000700025020008250200082502000825020008C4
:1000800025020008250200082502000800000000E3
:100090000000000000000000000000002502000831
:1000A0002502000825020008250200082502000894
:1000B0002502000825020008250200082502000884
:1000C0002502000825020008250200082502000874
:1000D0002502000825020008250200080000000093
:1000E0002502000825020008250200080000000083
:1000F00000000000000000000000000025020008D1
:100100000000000025020008250200082502000862
:1001100000000000000000000000000000000000DF
:100120002502000825020008250200082502000813
:100130002502000800000000000000000000000090
:100140000000000000000000000000002502000880
:1001500025020008250200082502000825020008E3
:100160002502000825020008000000000000000031
:10017000000000000000000000000000000000007F
:10018000000000000000000000000000000000006F
:04019000250200083C
:1001940010B5054C237833B9044B13B10448AFF3BD
:1001A40000800123237010BD000000200000000027
:1001B4001803000808B5034B1BB103490348AFF308
:1001C400008008BD0000000004000020180300089F
:1001D4000D488546AFF300800C480D490D4A0023B5
:1001E40002E0D458C4500433C4188C42F9D30A4AE8
:1001F4000A4C002301E013600432A242FBD300F056
:1002040065F800F00FF8FEE70080012000000020F0
:100214000000002038030008000000201C0000201B
:10022400FEE7000080B489B000AF0023FB61214BDE
:10023400BB61214B7B61214B3B61214BFB60214B1B
:10024400BB60214B7B60BB691B6843F00502BB6943
:100254001A603B691B6823F440623B691A603B697E
:100264001B6843F480623B691A60FB681B6823F0D7
:100274004062FB681A607B681B6823F040627B68FD
:100284001A607B681B6843F080627B681A607B6934
:100294001B68B3F5005F06D0BB681B6843F02002FF
:1002A400BB681A60F3E7BB681B6823F02002BB68D5
:1002B4001A60ECE7303802401008024000000240A7
:1002C40000080240140002400C08024070B50D4DB5
:1002D4000D4C641BA4100026A64209D10B4D0C4CF6
:1002E40000F018F8641BA4100026A64205D170BDC6
:1002F40055F8043B98470136EEE755F8043B984718
:100304000136F2E730030008300300083003000828
:1003140034030008F8B500BFF8BC08BC9E4670471B
:0C032400F8B500BFF8BC08BC9E4670474E
:04033000B901000807
:040334009501000827
:04000005080001D519
:00000001FF
