:020000040800F2
:1000000000800120D5010008250200082502000813
:100010002502000825020008250200080000000053
:1000200000000000000000000000000025020008A1
:100030002502000800000000250200082502000833
:100040000000000025020008250200082502000823
:1000500025020008250200082502000825020008E4
:1000600025020008250200082502000825020008D4
:1000700025020008250200082502000825020008C4
:1000800025020008250200082502000800000000E3
:100090000000000000000000000000002502000831
:1000A0002502000825020008250200082502000894
:1000B0002502000825020008250200082502000884
:1000C0002502000825020008250200082502000874
:1000D0002502000825020008250200080000000093
:1000E0002502000825020008250200080000000083
:1000F00000000000000000000000000025020008D1
:100100000000000025020008250200082502000862
:1001100000000000000000000000000000000000DF
:100120002502000825020008250200082502000813
:100130002502000800000000000000000000000090
:100140000000000000000000000000002502000880
:1001500025020008250200082502000825020008E3
:100160002502000825020008000000000000000031
:10017000000000000000000000000000000000007F
:10018000000000000000000000000000000000006F
:04019000250200083C
:1001940010B5054C237833B9044B13B10448AFF3BD
:1001A40000800123237010BD000000200000000027
:1001B400FC02000808B5034B1BB103490348AFF325
:1001C400008008BD0000000004000020FC020008BC
:1001D4000D488546AFF300800C480D490D4A0023B5
:1001E40002E0D458C4500433C4188C42F9D30A4AE8
:1001F4000A4C002301E013600432A242FBD300F056
:1002040057F800F00FF8FEE70080012000000020FE
:10021400000000201C030008000000201C00002037
:10022400FEE7000080B485B000AF0023FB601C4BE8
:10023400BB601C4B7B601C4B3B60BB681B6843F082
:100244000102BB681A607B681B6823F440627B6808
:100254001A607B681B6843F480627B681A603B68A1
:100264001B6843F020023B681A600023FB6002E035
:10027400FB680133FB60FB680C4A9342F8D93B6886
:100284001B6823F020023B681A600023FB6002E035
:10029400FB680133FB60FB68044A9342F8D9DEE74C
:1002A4003038024000000240140002401FA1070041
:1002B40070B50D4D0D4C641BA4100026A64209D147
:1002C4000B4D0C4C00F018F8641BA4100026A64239
:1002D40005D170BD55F8043B98470136EEE755F853
:1002E400043B98470136F2E714030008140300089E
:1002F4001403000818030008F8B500BFF8BC08BCD4
:100304009E467047F8B500BFF8BC08BC9E467047CF
:04031400B901000823
:040318009501000843
:04000005080001D519
:00000001FF
