:020000040800F2
:1000000000800120D5010008250200082502000813
:100010002502000825020008250200080000000053
:1000200000000000000000000000000025020008A1
:100030002502000800000000250200082502000833
:100040000000000025020008250200082502000823
:1000500025020008250200082502000825020008E4
:1000600025020008250200082502000825020008D4
:1000700025020008250200082502000825020008C4
:1000800025020008250200082502000800000000E3
:100090000000000000000000000000002502000831
:1000A0002502000825020008250200082502000894
:1000B0002502000825020008250200082502000884
:1000C0002502000825020008250200082502000874
:1000D0002502000825020008250200080000000093
:1000E0002502000825020008250200080000000083
:1000F00000000000000000000000000025020008D1
:100100000000000025020008250200082502000862
:1001100000000000000000000000000000000000DF
:100120002502000825020008250200082502000813
:100130002502000800000000000000000000000090
:100140000000000000000000000000002502000880
:1001500025020008250200082502000825020008E3
:100160002502000825020008000000000000000031
:10017000000000000000000000000000000000007F
:10018000000000000000000000000000000000006F
:04019000250200083C
:1001940010B5054C237833B9044B13B10448AFF3BD
:1001A40000800123237010BD000000200000000027
:1001B400C002000808B5034B1BB103490348AFF361
:1001C400008008BD0000000004000020C0020008F8
:1001D4000D488546AFF300800C480D490D4A0023B5
:1001E40002E0D458C4500433C4188C42F9D30A4AE8
:1001F4000A4C002301E013600432A242FBD300F056
:1002040039F800F00FF8FEE700800120000000201C
:1002140000000020E0020008000000201C00002074
:10022400FEE7000080B485B000AF0F4BFB600F4BBE
:10023400BB600F4B7B60FB681B6843F00102FB68EB
:100244001A60BB681B6823F44062BB681A60BB6811
:100254001B6843F48062BB681A607B681B6843F0C8
:1002640020027B681A60FEE730380240000002403A
:100274001400024070B50D4D0D4C641BA4100026F3
:10028400A64209D10B4D0C4C00F018F8641BA410C5
:100294000026A64205D170BD55F8043B98470136A7
:1002A400EEE755F8043B98470136F2E7D802000818
:1002B400D8020008D8020008DC020008F8B500BF24
:1002C400F8BC08BC9E467047F8B500BFF8BC08BC33
:0402D4009E4670478B
:0402D800B901000860
:0402DC009501000880
:04000005080001D519
:00000001FF
